:03000000020BCC24
:0C0BCC00787FE4F6D8FD758120020C1340
:100A9800302F302028302E3029002F003130002010
:100AA80028002A2A2A2A2A2A2A2A2A2A2A2A2A2ACA
:100AB8002A2A2A2A2A2A2A2A2A2A0D0A002A2A2AF5
:100AC8002A2A437269636B65742053636F72652ABF
:100AD8002A2A2A2A2A0D0A002E00570045004E000D
:100AE80031003200330034003500496E636F727292
:100AF8006563742073636F72650D0A000D0A002028
:100B080020202020202020202020202020202000FD
:100B18002020496E6E696E677320456E64732020CD
:100B280000496E6E696E677320456E64730D0A0026
:100D4100C101C10002090000010B00010800010FEF
:0A0D510000010D00010C00010E006E
:100C5800E4F5A0C282C280C2817F38FE120D5C1208
:100C68000CDF7F067E00120D5C120CDF7F0C7E000D
:100C7800120D5C120CDF7F017E00120D5C120CDF7E
:070C88007F807E00020D5C7D
:040CDF007F047E0010
:100CE300E4FDFCC3ED9FEC9E5015E4FBFA0BBB0047
:0F0CF300010ABA01F8BB7EF50DBD00010C80E4CB
:010D020022CE
:100D5C00C280C281D2828FA07F0A7E00120CE3C2B5
:020D6C008222E1
:0D0D0300E50D75F00A84E5F02430F50DFFD4
:100D1000D280C281D2828FA07F0A7E00120CE3C2F1
:020D200082222D
:100CBA008B118A128913AB11AA12A913120B38606D
:100CCA00130513E5137002051214F9120B38FF12FB
:050CDA000D1080E22274
:100D6E00758920758DCC759850D28ED2ACD2AF22AB
:080D98008F993001FDC2012218
:060C8F007BFF7A0A79AA3E
:100C95008B118A128913AB11AA12A913120B386092
:100CA500130513E5137002051214F9120B38FF1220
:050CB5000D9880E22211
:090D8E00E4FF3000FDC200AF9942
:010D97002239
:03002300020D7E4D
:100D7E00309905C299D20132309804C298D200320D
:100D22007F017E00120D5C120CDF7F83120D5C7B53
:0F0D3200FF7A0A7998120CBA7FC07E00020D5C1E
:1009D9007F837E00120D5C850A0DAF0D7E007C03BE
:1009E9007DE8120B517E007F64CFCDCFCECCCE12E5
:1009F9000B51EF2430F50D64306005AF0D120D1069
:100A0900850A0CE50C75F06484E5F075F00A842418
:100A190030F50CAF0DEF6430700BEF6430700BE5FF
:100A29000C64306005AF0C120D10850A0D120D0310
:100A39007BFF7A0A79A2120CBAE508640A700B7B6B
:100A4900FF7A0A79A4120CBA8008E5082430FF124B
:100A59000D107BFF7A0A79A7120CBA850B0DE50DEB
:100A690075F06484E5F075F00A842430F50D64307E
:100A79006005AF0D120D10850B0D120D037F2E129F
:0F0A89000D10E50F2430FF120D107F29020D1004
:10080000E4F51075900F120C58120D6E120C8F7BC0
:10081000FF7A0A79C5120C95120C8F120D22120D57
:100820008E8F10750CC0E50E250CF50CFF7E0012A6
:100830000D5CE510120BA608592E08A63108BD3232
:1008400008D73308F134090B35092836087B6508C9
:10085000916E08697700000941050F7F2E120D1077
:100860007BFF7A0A79E0020923050F05087F5712FA
:100870000D107BFF7A0A79E2020923050AE50A7066
:100880000205097F45120D107BFF7A0A79E40209FF
:1008900023050AE50A700205097F4E120D107BFF41
:1008A0007A0A79E6807D050AE50A70020509050FD6
:1008B0007F31120D107BFF7A0A79E8806674022579
:1008C0000AF50AE43509F509050F7F32120D107B90
:1008D000FF7A0A79EA804C7403250AF50AE435099F
:1008E000F509050F7F33120D107BFF7A0A79EC8032
:1008F000327404250AF50AE43509F509050F7F3439
:10090000120D107BFF7A0A79EE80187405250AF51E
:100910000AE43509F509050F7F35120D107BFF7AC2
:100920000A79F0120C9580247406250AF50AE4353C
:1009300009F509050F7F36120D107F36120D9880CC
:100940000B7BFF7A0A79F2120C95150E050E7F6467
:100950007E00120CE3E50F64067029050BF50F7B92
:10096000FF7A0B7904120C957F64120CE37FC0129E
:100970000D5C7BFF7A0B7907120CBAE4F50E7FC091
:10098000FE120D5CE50B64146006E508640A704312
:100990001209D97FC07E00120D5C7BFF7A0B79189B
:1009A000120CBA7BFF7A0B7904120C957BFF7A0B41
:1009B0007929120C957F887E13120CE3120D22E424
:1009C000F509F50AF50BF508F50FF50DF50CF50E23
:0909D00002081E1209D902081EDA
:100BD800020800E493A3F8E493A34003F68001F22B
:100BE80008DFF48029E493A3F85407240CC8C3331E
:100BF800C4540F4420C8834004F456800146F6DFED
:100C0800E4800B0102040810204080900D41E47E2E
:100C1800019360BCA3FF543F30E509541FFEE493E1
:100C2800A360010ECF54C025E060A840B8E493A3A8
:100C3800FAE493A3F8E493A3C8C582C8CAC583CAD3
:100C4800F0A3C8C582C8CAC583CADFE9DEE780BE8B
:010D5B000097
:100B3800BB010689828A83E0225002E722BBFE02BB
:090B4800E32289828A83E49322EE
:100B5100BC000BBE0029EF8DF084FFADF022E4CC88
:100B6100F875F008EF2FFFEE33FEEC33FCEE9DEC51
:100B7100984005FCEE9DFE0FD5F0E9E4CEFD22ED97
:100B8100F8F5F0EE8420D21CFEADF075F008EF2FE1
:100B9100FFED33FD4007985006D5F0F222C398FDD2
:050BA1000FD5F0EA226F
:100BA600D083D082F8E4937012740193700DA3A3DE
:100BB60093F8740193F5828883E4737402936860F2
:060BC600EFA3A3A380DFF2
:00000001FF
